{
  "_format": "hh-sol-artifact-1",
  "contractName": "EpicNFT",
  "sourceName": "contracts/EpicNFT.sol",
  "abi": [
    {
      "inputs": [],
      "stateMutability": "nonpayable",
      "type": "constructor"
    },
    {
      "anonymous": false,
      "inputs": [
        {
          "indexed": true,
          "internalType": "address",
          "name": "owner",
          "type": "address"
        },
        {
          "indexed": true,
          "internalType": "address",
          "name": "approved",
          "type": "address"
        },
        {
          "indexed": true,
          "internalType": "uint256",
          "name": "tokenId",
          "type": "uint256"
        }
      ],
      "name": "Approval",
      "type": "event"
    },
    {
      "anonymous": false,
      "inputs": [
        {
          "indexed": true,
          "internalType": "address",
          "name": "owner",
          "type": "address"
        },
        {
          "indexed": true,
          "internalType": "address",
          "name": "operator",
          "type": "address"
        },
        {
          "indexed": false,
          "internalType": "bool",
          "name": "approved",
          "type": "bool"
        }
      ],
      "name": "ApprovalForAll",
      "type": "event"
    },
    {
      "anonymous": false,
      "inputs": [
        {
          "indexed": true,
          "internalType": "address",
          "name": "from",
          "type": "address"
        },
        {
          "indexed": true,
          "internalType": "address",
          "name": "to",
          "type": "address"
        },
        {
          "indexed": true,
          "internalType": "uint256",
          "name": "tokenId",
          "type": "uint256"
        }
      ],
      "name": "Transfer",
      "type": "event"
    },
    {
      "inputs": [
        {
          "internalType": "address",
          "name": "to",
          "type": "address"
        },
        {
          "internalType": "uint256",
          "name": "tokenId",
          "type": "uint256"
        }
      ],
      "name": "approve",
      "outputs": [],
      "stateMutability": "nonpayable",
      "type": "function"
    },
    {
      "inputs": [
        {
          "internalType": "address",
          "name": "owner",
          "type": "address"
        }
      ],
      "name": "balanceOf",
      "outputs": [
        {
          "internalType": "uint256",
          "name": "",
          "type": "uint256"
        }
      ],
      "stateMutability": "view",
      "type": "function"
    },
    {
      "inputs": [
        {
          "internalType": "uint256",
          "name": "tokenId",
          "type": "uint256"
        }
      ],
      "name": "getApproved",
      "outputs": [
        {
          "internalType": "address",
          "name": "",
          "type": "address"
        }
      ],
      "stateMutability": "view",
      "type": "function"
    },
    {
      "inputs": [
        {
          "internalType": "address",
          "name": "owner",
          "type": "address"
        },
        {
          "internalType": "address",
          "name": "operator",
          "type": "address"
        }
      ],
      "name": "isApprovedForAll",
      "outputs": [
        {
          "internalType": "bool",
          "name": "",
          "type": "bool"
        }
      ],
      "stateMutability": "view",
      "type": "function"
    },
    {
      "inputs": [],
      "name": "makeNFT",
      "outputs": [],
      "stateMutability": "nonpayable",
      "type": "function"
    },
    {
      "inputs": [],
      "name": "name",
      "outputs": [
        {
          "internalType": "string",
          "name": "",
          "type": "string"
        }
      ],
      "stateMutability": "view",
      "type": "function"
    },
    {
      "inputs": [
        {
          "internalType": "uint256",
          "name": "tokenId",
          "type": "uint256"
        }
      ],
      "name": "ownerOf",
      "outputs": [
        {
          "internalType": "address",
          "name": "",
          "type": "address"
        }
      ],
      "stateMutability": "view",
      "type": "function"
    },
    {
      "inputs": [],
      "name": "randomRgb",
      "outputs": [
        {
          "internalType": "uint256",
          "name": "",
          "type": "uint256"
        }
      ],
      "stateMutability": "nonpayable",
      "type": "function"
    },
    {
      "inputs": [
        {
          "internalType": "address",
          "name": "from",
          "type": "address"
        },
        {
          "internalType": "address",
          "name": "to",
          "type": "address"
        },
        {
          "internalType": "uint256",
          "name": "tokenId",
          "type": "uint256"
        }
      ],
      "name": "safeTransferFrom",
      "outputs": [],
      "stateMutability": "nonpayable",
      "type": "function"
    },
    {
      "inputs": [
        {
          "internalType": "address",
          "name": "from",
          "type": "address"
        },
        {
          "internalType": "address",
          "name": "to",
          "type": "address"
        },
        {
          "internalType": "uint256",
          "name": "tokenId",
          "type": "uint256"
        },
        {
          "internalType": "bytes",
          "name": "_data",
          "type": "bytes"
        }
      ],
      "name": "safeTransferFrom",
      "outputs": [],
      "stateMutability": "nonpayable",
      "type": "function"
    },
    {
      "inputs": [
        {
          "internalType": "address",
          "name": "operator",
          "type": "address"
        },
        {
          "internalType": "bool",
          "name": "approved",
          "type": "bool"
        }
      ],
      "name": "setApprovalForAll",
      "outputs": [],
      "stateMutability": "nonpayable",
      "type": "function"
    },
    {
      "inputs": [
        {
          "internalType": "bytes4",
          "name": "interfaceId",
          "type": "bytes4"
        }
      ],
      "name": "supportsInterface",
      "outputs": [
        {
          "internalType": "bool",
          "name": "",
          "type": "bool"
        }
      ],
      "stateMutability": "view",
      "type": "function"
    },
    {
      "inputs": [],
      "name": "symbol",
      "outputs": [
        {
          "internalType": "string",
          "name": "",
          "type": "string"
        }
      ],
      "stateMutability": "view",
      "type": "function"
    },
    {
      "inputs": [
        {
          "internalType": "uint256",
          "name": "tokenId",
          "type": "uint256"
        }
      ],
      "name": "tokenURI",
      "outputs": [
        {
          "internalType": "string",
          "name": "",
          "type": "string"
        }
      ],
      "stateMutability": "view",
      "type": "function"
    },
    {
      "inputs": [
        {
          "internalType": "address",
          "name": "from",
          "type": "address"
        },
        {
          "internalType": "address",
          "name": "to",
          "type": "address"
        },
        {
          "internalType": "uint256",
          "name": "tokenId",
          "type": "uint256"
        }
      ],
      "name": "transferFrom",
      "outputs": [],
      "stateMutability": "nonpayable",
      "type": "function"
    }
  ],
  "bytecode": "0x60806040526040518060c001604052806081815260200162003c0f60819139600890805190602001906200003592919062000239565b5060405180610100016040528060e0815260200162003b2f60e09139600990805190602001906200006892919062000239565b506000600a553480156200007b57600080fd5b506040518060400160405280600881526020017f72656e7a6f4e46540000000000000000000000000000000000000000000000008152506040518060400160405280600681526020017f535155415245000000000000000000000000000000000000000000000000000081525081600090805190602001906200010092919062000239565b5080600190805190602001906200011992919062000239565b505050620001676040518060400160405280601b81526020017f54686973206973206d7920636f6e74726163742072756e6e696e6700000000008152506200016d60201b62000d7e1760201c565b62000416565b6200020d816040516024016200018491906200032a565b6040516020818303038152906040527f41304fac000000000000000000000000000000000000000000000000000000007bffffffffffffffffffffffffffffffffffffffffffffffffffffffff19166020820180517bffffffffffffffffffffffffffffffffffffffffffffffffffffffff83818316178352505050506200021060201b60201c565b50565b60008151905060006a636f6e736f6c652e6c6f679050602083016000808483855afa5050505050565b8280546200024790620003a0565b90600052602060002090601f0160209004810192826200026b5760008555620002b7565b82601f106200028657805160ff1916838001178555620002b7565b82800160010185558215620002b7579182015b82811115620002b657825182559160200191906001019062000299565b5b509050620002c69190620002ca565b5090565b5b80821115620002e5576000816000905550600101620002cb565b5090565b6000620002f6826200034e565b62000302818562000359565b9350620003148185602086016200036a565b6200031f8162000405565b840191505092915050565b60006020820190508181036000830152620003468184620002e9565b905092915050565b600081519050919050565b600082825260208201905092915050565b60005b838110156200038a5780820151818401526020810190506200036d565b838111156200039a576000848401525b50505050565b60006002820490506001821680620003b957607f821691505b60208210811415620003d057620003cf620003d6565b5b50919050565b7f4e487b7100000000000000000000000000000000000000000000000000000000600052602260045260246000fd5b6000601f19601f8301169050919050565b61370980620004266000396000f3fe608060405234801561001057600080fd5b50600436106100f55760003560e01c806370a0823111610097578063b88d4fde11610066578063b88d4fde14610270578063c87b56dd1461028c578063e985e9c5146102bc578063f45cdc98146102ec576100f5565b806370a08231146101fc57806395d89b411461022c578063a22cb4651461024a578063b036b4bd14610266576100f5565b8063095ea7b3116100d3578063095ea7b31461017857806323b872dd1461019457806342842e0e146101b05780636352211e146101cc576100f5565b806301ffc9a7146100fa57806306fdde031461012a578063081812fc14610148575b600080fd5b610114600480360381019061010f91906122bc565b61030a565b6040516101219190612964565b60405180910390f35b6101326103ec565b60405161013f919061297f565b60405180910390f35b610162600480360381019061015d919061230e565b61047e565b60405161016f91906128fd565b60405180910390f35b610192600480360381019061018d9190612280565b610503565b005b6101ae60048036038101906101a9919061217a565b61061b565b005b6101ca60048036038101906101c5919061217a565b61067b565b005b6101e660048036038101906101e1919061230e565b61069b565b6040516101f391906128fd565b60405180910390f35b61021660048036038101906102119190612115565b61074d565b6040516102239190612bdf565b60405180910390f35b610234610805565b604051610241919061297f565b60405180910390f35b610264600480360381019061025f9190612244565b610897565b005b61026e6108ad565b005b61028a600480360381019061028591906121c9565b610ad6565b005b6102a660048036038101906102a1919061230e565b610b38565b6040516102b3919061297f565b60405180910390f35b6102d660048036038101906102d1919061213e565b610c8a565b6040516102e39190612964565b60405180910390f35b6102f4610d1e565b6040516103019190612bdf565b60405180910390f35b60007f80ac58cd000000000000000000000000000000000000000000000000000000007bffffffffffffffffffffffffffffffffffffffffffffffffffffffff1916827bffffffffffffffffffffffffffffffffffffffffffffffffffffffff191614806103d557507f5b5e139f000000000000000000000000000000000000000000000000000000007bffffffffffffffffffffffffffffffffffffffffffffffffffffffff1916827bffffffffffffffffffffffffffffffffffffffffffffffffffffffff1916145b806103e557506103e482610e17565b5b9050919050565b6060600080546103fb90612e73565b80601f016020809104026020016040519081016040528092919081815260200182805461042790612e73565b80156104745780601f1061044957610100808354040283529160200191610474565b820191906000526020600020905b81548152906001019060200180831161045757829003601f168201915b5050505050905090565b600061048982610e81565b6104c8576040517f08c379a00000000000000000000000000000000000000000000000000000000081526004016104bf90612b5f565b60405180910390fd5b6004600083815260200190815260200160002060009054906101000a900473ffffffffffffffffffffffffffffffffffffffff169050919050565b600061050e8261069b565b90508073ffffffffffffffffffffffffffffffffffffffff168373ffffffffffffffffffffffffffffffffffffffff16141561057f576040517f08c379a000000000000000000000000000000000000000000000000000000000815260040161057690612b9f565b60405180910390fd5b8073ffffffffffffffffffffffffffffffffffffffff1661059e610eed565b73ffffffffffffffffffffffffffffffffffffffff1614806105cd57506105cc816105c7610eed565b610c8a565b5b61060c576040517f08c379a000000000000000000000000000000000000000000000000000000000815260040161060390612a9f565b60405180910390fd5b6106168383610ef5565b505050565b61062c610626610eed565b82610fae565b61066b576040517f08c379a000000000000000000000000000000000000000000000000000000000815260040161066290612bbf565b60405180910390fd5b61067683838361108c565b505050565b61069683838360405180602001604052806000815250610ad6565b505050565b6000806002600084815260200190815260200160002060009054906101000a900473ffffffffffffffffffffffffffffffffffffffff169050600073ffffffffffffffffffffffffffffffffffffffff168173ffffffffffffffffffffffffffffffffffffffff161415610744576040517f08c379a000000000000000000000000000000000000000000000000000000000815260040161073b90612adf565b60405180910390fd5b80915050919050565b60008073ffffffffffffffffffffffffffffffffffffffff168273ffffffffffffffffffffffffffffffffffffffff1614156107be576040517f08c379a00000000000000000000000000000000000000000000000000000000081526004016107b590612abf565b60405180910390fd5b600360008373ffffffffffffffffffffffffffffffffffffffff1673ffffffffffffffffffffffffffffffffffffffff168152602001908152602001600020549050919050565b60606001805461081490612e73565b80601f016020809104026020016040519081016040528092919081815260200182805461084090612e73565b801561088d5780601f106108625761010080835404028352916020019161088d565b820191906000526020600020905b81548152906001019060200180831161087057829003601f168201915b5050505050905090565b6108a96108a2610eed565b83836112f3565b5050565b60006108b96007611460565b905060006108fb6040518060400160405280600181526020017f300000000000000000000000000000000000000000000000000000000000000081525061146e565b9050600061093d6040518060400160405280600281526020017f353000000000000000000000000000000000000000000000000000000000000081525061146e565b9050600061097f6040518060400160405280600381526020017f313030000000000000000000000000000000000000000000000000000000000081525061146e565b905060006008848484600960405160200161099e959493929190612826565b604051602081830303815290604052905060006109e16109bd8361159d565b6040516020016109cd9190612871565b60405160208183030381529060405261159d565b90506000816040516020016109f6919061289e565b6040516020818303038152906040529050610a456040518060400160405280601581526020017f0a2d2d2d2d2d2d2d2d2d2d2d2d2d2d2d2d2d2d2d2d0000000000000000000000815250610d7e565b610a4e81610d7e565b610a8c6040518060400160405280601581526020017f2d2d2d2d2d2d2d2d2d2d2d2d2d2d2d2d2d2d2d2d0a0000000000000000000000815250610d7e565b610a96338861173c565b610aa0878261175a565b610aaa60076117ce565b610acd60405180606001604052806025815260200161366f6025913988336117e4565b50505050505050565b610ae7610ae1610eed565b83610fae565b610b26576040517f08c379a0000000000000000000000000000000000000000000000000000000008152600401610b1d90612bbf565b60405180910390fd5b610b3284848484611883565b50505050565b6060610b4382610e81565b610b82576040517f08c379a0000000000000000000000000000000000000000000000000000000008152600401610b7990612b3f565b60405180910390fd5b6000600660008481526020019081526020016000208054610ba290612e73565b80601f0160208091040260200160405190810160405280929190818152602001828054610bce90612e73565b8015610c1b5780601f10610bf057610100808354040283529160200191610c1b565b820191906000526020600020905b815481529060010190602001808311610bfe57829003601f168201915b505050505090506000610c2c6118df565b9050600081511415610c42578192505050610c85565b600082511115610c77578082604051602001610c5f929190612770565b60405160208183030381529060405292505050610c85565b610c80846118f6565b925050505b919050565b6000600560008473ffffffffffffffffffffffffffffffffffffffff1673ffffffffffffffffffffffffffffffffffffffff16815260200190815260200160002060008373ffffffffffffffffffffffffffffffffffffffff1673ffffffffffffffffffffffffffffffffffffffff16815260200190815260200160002060009054906101000a900460ff16905092915050565b60008060ff4233600a54604051602001610d3a939291906128c0565b6040516020818303038152906040528051906020012060001c610d5d9190612f4d565b9050600a6000815480929190610d7290612ed6565b91905055508091505090565b610e1481604051602401610d92919061297f565b6040516020818303038152906040527f41304fac000000000000000000000000000000000000000000000000000000007bffffffffffffffffffffffffffffffffffffffffffffffffffffffff19166020820180517bffffffffffffffffffffffffffffffffffffffffffffffffffffffff838183161783525050505061199d565b50565b60007f01ffc9a7000000000000000000000000000000000000000000000000000000007bffffffffffffffffffffffffffffffffffffffffffffffffffffffff1916827bffffffffffffffffffffffffffffffffffffffffffffffffffffffff1916149050919050565b60008073ffffffffffffffffffffffffffffffffffffffff166002600084815260200190815260200160002060009054906101000a900473ffffffffffffffffffffffffffffffffffffffff1673ffffffffffffffffffffffffffffffffffffffff1614159050919050565b600033905090565b816004600083815260200190815260200160002060006101000a81548173ffffffffffffffffffffffffffffffffffffffff021916908373ffffffffffffffffffffffffffffffffffffffff160217905550808273ffffffffffffffffffffffffffffffffffffffff16610f688361069b565b73ffffffffffffffffffffffffffffffffffffffff167f8c5be1e5ebec7d5bd14f71427d1e84f3dd0314c0f7b2291e5b200ac8c7c3b92560405160405180910390a45050565b6000610fb982610e81565b610ff8576040517f08c379a0000000000000000000000000000000000000000000000000000000008152600401610fef90612a7f565b60405180910390fd5b60006110038361069b565b90508073ffffffffffffffffffffffffffffffffffffffff168473ffffffffffffffffffffffffffffffffffffffff16148061107257508373ffffffffffffffffffffffffffffffffffffffff1661105a8461047e565b73ffffffffffffffffffffffffffffffffffffffff16145b8061108357506110828185610c8a565b5b91505092915050565b8273ffffffffffffffffffffffffffffffffffffffff166110ac8261069b565b73ffffffffffffffffffffffffffffffffffffffff1614611102576040517f08c379a00000000000000000000000000000000000000000000000000000000081526004016110f9906129ff565b60405180910390fd5b600073ffffffffffffffffffffffffffffffffffffffff168273ffffffffffffffffffffffffffffffffffffffff161415611172576040517f08c379a000000000000000000000000000000000000000000000000000000000815260040161116990612a3f565b60405180910390fd5b61117d8383836119c6565b611188600082610ef5565b6001600360008573ffffffffffffffffffffffffffffffffffffffff1673ffffffffffffffffffffffffffffffffffffffff16815260200190815260200160002060008282546111d89190612d89565b925050819055506001600360008473ffffffffffffffffffffffffffffffffffffffff1673ffffffffffffffffffffffffffffffffffffffff168152602001908152602001600020600082825461122f9190612ca8565b92505081905550816002600083815260200190815260200160002060006101000a81548173ffffffffffffffffffffffffffffffffffffffff021916908373ffffffffffffffffffffffffffffffffffffffff160217905550808273ffffffffffffffffffffffffffffffffffffffff168473ffffffffffffffffffffffffffffffffffffffff167fddf252ad1be2c89b69c2b068fc378daa952ba7f163c4a11628f55a4df523b3ef60405160405180910390a46112ee8383836119cb565b505050565b8173ffffffffffffffffffffffffffffffffffffffff168373ffffffffffffffffffffffffffffffffffffffff161415611362576040517f08c379a000000000000000000000000000000000000000000000000000000000815260040161135990612a5f565b60405180910390fd5b80600560008573ffffffffffffffffffffffffffffffffffffffff1673ffffffffffffffffffffffffffffffffffffffff16815260200190815260200160002060008473ffffffffffffffffffffffffffffffffffffffff1673ffffffffffffffffffffffffffffffffffffffff16815260200190815260200160002060006101000a81548160ff0219169083151502179055508173ffffffffffffffffffffffffffffffffffffffff168373ffffffffffffffffffffffffffffffffffffffff167f17307eab39ab6107e8899845ad3d59bd9653f200f220920489ca2b5937696c31836040516114539190612964565b60405180910390a3505050565b600081600001549050919050565b6060600061148261147d610d1e565b6119d0565b90506000611496611491610d1e565b6119d0565b905060006114aa6114a5610d1e565b6119d0565b905060006040518060400160405280600e81526020017f3c73746f70206f66667365743d22000000000000000000000000000000000000815250905060006040518060400160405280601981526020017f2522207374796c653d2273746f702d636f6c6f723a7267622800000000000000815250905060006040518060400160405280601781526020017f293b73746f702d6f7061636974793a312e303022202f3e0000000000000000008152509050600083898460405160200161157193929190612794565b604051602081830303815290604052905061158f8188888886611b7d565b975050505050505050919050565b60606000825114156115c057604051806020016040528060008152509050611737565b600060405180606001604052806040815260200161369460409139905060006003600285516115ef9190612ca8565b6115f99190612cfe565b60046116059190612d2f565b905060006020826116169190612ca8565b67ffffffffffffffff811115611655577f4e487b7100000000000000000000000000000000000000000000000000000000600052604160045260246000fd5b6040519080825280601f01601f1916602001820160405280156116875781602001600182028036833780820191505090505b509050818152600183018586518101602084015b818310156116f6576003830192508251603f8160121c168501518253600182019150603f81600c1c168501518253600182019150603f8160061c168501518253600182019150603f811685015182536001820191505061169b565b60038951066001811461171057600281146117205761172b565b613d3d60f01b600283035261172b565b603d60f81b60018303525b50505050508093505050505b919050565b611756828260405180602001604052806000815250611bb2565b5050565b61176382610e81565b6117a2576040517f08c379a000000000000000000000000000000000000000000000000000000000815260040161179990612aff565b60405180910390fd5b806006600084815260200190815260200160002090805190602001906117c9929190611fa1565b505050565b6001816000016000828254019250508190555050565b61187e8383836040516024016117fc939291906129a1565b6040516020818303038152906040527fe3849f79000000000000000000000000000000000000000000000000000000007bffffffffffffffffffffffffffffffffffffffffffffffffffffffff19166020820180517bffffffffffffffffffffffffffffffffffffffffffffffffffffffff838183161783525050505061199d565b505050565b61188e84848461108c565b61189a84848484611c0d565b6118d9576040517f08c379a00000000000000000000000000000000000000000000000000000000081526004016118d0906129df565b60405180910390fd5b50505050565b606060405180602001604052806000815250905090565b606061190182610e81565b611940576040517f08c379a000000000000000000000000000000000000000000000000000000000815260040161193790612b7f565b60405180910390fd5b600061194a6118df565b9050600081511161196a5760405180602001604052806000815250611995565b80611974846119d0565b604051602001611985929190612770565b6040516020818303038152906040525b915050919050565b60008151905060006a636f6e736f6c652e6c6f679050602083016000808483855afa5050505050565b505050565b505050565b60606000821415611a18576040518060400160405280600181526020017f30000000000000000000000000000000000000000000000000000000000000008152509050611b78565b600082905060005b60008214611a4a578080611a3390612ed6565b915050600a82611a439190612cfe565b9150611a20565b60008167ffffffffffffffff811115611a8c577f4e487b7100000000000000000000000000000000000000000000000000000000600052604160045260246000fd5b6040519080825280601f01601f191660200182016040528015611abe5781602001600182028036833780820191505090505b5090505b60008514611b7157600182611ad79190612d89565b9150600a85611ae69190612f4d565b6030611af29190612ca8565b60f81b818381518110611b2e577f4e487b7100000000000000000000000000000000000000000000000000000000600052603260045260246000fd5b60200101907effffffffffffffffffffffffffffffffffffffffffffffffffffffffffffff1916908160001a905350600a85611b6a9190612cfe565b9450611ac2565b8093505050505b919050565b60608585858585604051602001611b989594939291906127c5565b604051602081830303815290604052905095945050505050565b611bbc8383611da4565b611bc96000848484611c0d565b611c08576040517f08c379a0000000000000000000000000000000000000000000000000000000008152600401611bff906129df565b60405180910390fd5b505050565b6000611c2e8473ffffffffffffffffffffffffffffffffffffffff16611f7e565b15611d97578373ffffffffffffffffffffffffffffffffffffffff1663150b7a02611c57610eed565b8786866040518563ffffffff1660e01b8152600401611c799493929190612918565b602060405180830381600087803b158015611c9357600080fd5b505af1925050508015611cc457506040513d601f19601f82011682018060405250810190611cc191906122e5565b60015b611d47573d8060008114611cf4576040519150601f19603f3d011682016040523d82523d6000602084013e611cf9565b606091505b50600081511415611d3f576040517f08c379a0000000000000000000000000000000000000000000000000000000008152600401611d36906129df565b60405180910390fd5b805181602001fd5b63150b7a0260e01b7bffffffffffffffffffffffffffffffffffffffffffffffffffffffff1916817bffffffffffffffffffffffffffffffffffffffffffffffffffffffff191614915050611d9c565b600190505b949350505050565b600073ffffffffffffffffffffffffffffffffffffffff168273ffffffffffffffffffffffffffffffffffffffff161415611e14576040517f08c379a0000000000000000000000000000000000000000000000000000000008152600401611e0b90612b1f565b60405180910390fd5b611e1d81610e81565b15611e5d576040517f08c379a0000000000000000000000000000000000000000000000000000000008152600401611e5490612a1f565b60405180910390fd5b611e69600083836119c6565b6001600360008473ffffffffffffffffffffffffffffffffffffffff1673ffffffffffffffffffffffffffffffffffffffff1681526020019081526020016000206000828254611eb99190612ca8565b92505081905550816002600083815260200190815260200160002060006101000a81548173ffffffffffffffffffffffffffffffffffffffff021916908373ffffffffffffffffffffffffffffffffffffffff160217905550808273ffffffffffffffffffffffffffffffffffffffff16600073ffffffffffffffffffffffffffffffffffffffff167fddf252ad1be2c89b69c2b068fc378daa952ba7f163c4a11628f55a4df523b3ef60405160405180910390a4611f7a600083836119cb565b5050565b6000808273ffffffffffffffffffffffffffffffffffffffff163b119050919050565b828054611fad90612e73565b90600052602060002090601f016020900481019282611fcf5760008555612016565b82601f10611fe857805160ff1916838001178555612016565b82800160010185558215612016579182015b82811115612015578251825591602001919060010190611ffa565b5b5090506120239190612027565b5090565b5b80821115612040576000816000905550600101612028565b5090565b600061205761205284612c1f565b612bfa565b90508281526020810184848401111561206f57600080fd5b61207a848285612e31565b509392505050565b60008135905061209181613612565b92915050565b6000813590506120a681613629565b92915050565b6000813590506120bb81613640565b92915050565b6000815190506120d081613640565b92915050565b600082601f8301126120e757600080fd5b81356120f7848260208601612044565b91505092915050565b60008135905061210f81613657565b92915050565b60006020828403121561212757600080fd5b600061213584828501612082565b91505092915050565b6000806040838503121561215157600080fd5b600061215f85828601612082565b925050602061217085828601612082565b9150509250929050565b60008060006060848603121561218f57600080fd5b600061219d86828701612082565b93505060206121ae86828701612082565b92505060406121bf86828701612100565b9150509250925092565b600080600080608085870312156121df57600080fd5b60006121ed87828801612082565b94505060206121fe87828801612082565b935050604061220f87828801612100565b925050606085013567ffffffffffffffff81111561222c57600080fd5b612238878288016120d6565b91505092959194509250565b6000806040838503121561225757600080fd5b600061226585828601612082565b925050602061227685828601612097565b9150509250929050565b6000806040838503121561229357600080fd5b60006122a185828601612082565b92505060206122b285828601612100565b9150509250929050565b6000602082840312156122ce57600080fd5b60006122dc848285016120ac565b91505092915050565b6000602082840312156122f757600080fd5b6000612305848285016120c1565b91505092915050565b60006020828403121561232057600080fd5b600061232e84828501612100565b91505092915050565b61234081612dbd565b82525050565b61235761235282612dbd565b612f1f565b82525050565b61236681612dcf565b82525050565b600061237782612c65565b6123818185612c7b565b9350612391818560208601612e40565b61239a8161303a565b840191505092915050565b60006123b082612c70565b6123ba8185612c8c565b93506123ca818560208601612e40565b6123d38161303a565b840191505092915050565b60006123e982612c70565b6123f38185612c9d565b9350612403818560208601612e40565b80840191505092915050565b6000815461241c81612e73565b6124268186612c9d565b94506001821660008114612441576001811461245257612485565b60ff19831686528186019350612485565b61245b85612c50565b60005b8381101561247d5781548189015260018201915060208101905061245e565b838801955050505b50505092915050565b600061249b603283612c8c565b91506124a682613058565b604082019050919050565b60006124be602583612c8c565b91506124c9826130a7565b604082019050919050565b60006124e1601c83612c8c565b91506124ec826130f6565b602082019050919050565b6000612504600183612c9d565b915061250f8261311f565b600182019050919050565b6000612527602483612c8c565b915061253282613148565b604082019050919050565b600061254a601983612c8c565b915061255582613197565b602082019050919050565b600061256d602c83612c8c565b9150612578826131c0565b604082019050919050565b6000612590603883612c8c565b915061259b8261320f565b604082019050919050565b60006125b3602a83612c8c565b91506125be8261325e565b604082019050919050565b60006125d6602983612c8c565b91506125e1826132ad565b604082019050919050565b60006125f9602e83612c8c565b9150612604826132fc565b604082019050919050565b600061261c600283612c9d565b91506126278261334b565b600282019050919050565b600061263f608783612c9d565b915061264a82613374565b608782019050919050565b6000612662602083612c8c565b915061266d82613435565b602082019050919050565b6000612685603183612c8c565b91506126908261345e565b604082019050919050565b60006126a8602c83612c8c565b91506126b3826134ad565b604082019050919050565b60006126cb602f83612c8c565b91506126d6826134fc565b604082019050919050565b60006126ee602183612c8c565b91506126f98261354b565b604082019050919050565b6000612711601d83612c9d565b915061271c8261359a565b601d82019050919050565b6000612734603183612c8c565b915061273f826135c3565b604082019050919050565b61275381612e27565b82525050565b61276a61276582612e27565b612f43565b82525050565b600061277c82856123de565b915061278882846123de565b91508190509392505050565b60006127a082866123de565b91506127ac82856123de565b91506127b882846123de565b9150819050949350505050565b60006127d182886123de565b91506127dd82876123de565b91506127e8826124f7565b91506127f482866123de565b91506127ff826124f7565b915061280b82856123de565b915061281782846123de565b91508190509695505050505050565b6000612832828861240f565b915061283e82876123de565b915061284a82866123de565b915061285682856123de565b9150612862828461240f565b91508190509695505050505050565b600061287c82612632565b915061288882846123de565b91506128938261260f565b915081905092915050565b60006128a982612704565b91506128b582846123de565b915081905092915050565b60006128cc8286612759565b6020820191506128dc8285612346565b6014820191506128ec8284612759565b602082019150819050949350505050565b60006020820190506129126000830184612337565b92915050565b600060808201905061292d6000830187612337565b61293a6020830186612337565b612947604083018561274a565b8181036060830152612959818461236c565b905095945050505050565b6000602082019050612979600083018461235d565b92915050565b6000602082019050818103600083015261299981846123a5565b905092915050565b600060608201905081810360008301526129bb81866123a5565b90506129ca602083018561274a565b6129d76040830184612337565b949350505050565b600060208201905081810360008301526129f88161248e565b9050919050565b60006020820190508181036000830152612a18816124b1565b9050919050565b60006020820190508181036000830152612a38816124d4565b9050919050565b60006020820190508181036000830152612a588161251a565b9050919050565b60006020820190508181036000830152612a788161253d565b9050919050565b60006020820190508181036000830152612a9881612560565b9050919050565b60006020820190508181036000830152612ab881612583565b9050919050565b60006020820190508181036000830152612ad8816125a6565b9050919050565b60006020820190508181036000830152612af8816125c9565b9050919050565b60006020820190508181036000830152612b18816125ec565b9050919050565b60006020820190508181036000830152612b3881612655565b9050919050565b60006020820190508181036000830152612b5881612678565b9050919050565b60006020820190508181036000830152612b788161269b565b9050919050565b60006020820190508181036000830152612b98816126be565b9050919050565b60006020820190508181036000830152612bb8816126e1565b9050919050565b60006020820190508181036000830152612bd881612727565b9050919050565b6000602082019050612bf4600083018461274a565b92915050565b6000612c04612c15565b9050612c108282612ea5565b919050565b6000604051905090565b600067ffffffffffffffff821115612c3a57612c3961300b565b5b612c438261303a565b9050602081019050919050565b60008190508160005260206000209050919050565b600081519050919050565b600081519050919050565b600082825260208201905092915050565b600082825260208201905092915050565b600081905092915050565b6000612cb382612e27565b9150612cbe83612e27565b9250827fffffffffffffffffffffffffffffffffffffffffffffffffffffffffffffffff03821115612cf357612cf2612f7e565b5b828201905092915050565b6000612d0982612e27565b9150612d1483612e27565b925082612d2457612d23612fad565b5b828204905092915050565b6000612d3a82612e27565b9150612d4583612e27565b9250817fffffffffffffffffffffffffffffffffffffffffffffffffffffffffffffffff0483118215151615612d7e57612d7d612f7e565b5b828202905092915050565b6000612d9482612e27565b9150612d9f83612e27565b925082821015612db257612db1612f7e565b5b828203905092915050565b6000612dc882612e07565b9050919050565b60008115159050919050565b60007fffffffff0000000000000000000000000000000000000000000000000000000082169050919050565b600073ffffffffffffffffffffffffffffffffffffffff82169050919050565b6000819050919050565b82818337600083830152505050565b60005b83811015612e5e578082015181840152602081019050612e43565b83811115612e6d576000848401525b50505050565b60006002820490506001821680612e8b57607f821691505b60208210811415612e9f57612e9e612fdc565b5b50919050565b612eae8261303a565b810181811067ffffffffffffffff82111715612ecd57612ecc61300b565b5b80604052505050565b6000612ee182612e27565b91507fffffffffffffffffffffffffffffffffffffffffffffffffffffffffffffffff821415612f1457612f13612f7e565b5b600182019050919050565b6000612f2a82612f31565b9050919050565b6000612f3c8261304b565b9050919050565b6000819050919050565b6000612f5882612e27565b9150612f6383612e27565b925082612f7357612f72612fad565b5b828206905092915050565b7f4e487b7100000000000000000000000000000000000000000000000000000000600052601160045260246000fd5b7f4e487b7100000000000000000000000000000000000000000000000000000000600052601260045260246000fd5b7f4e487b7100000000000000000000000000000000000000000000000000000000600052602260045260246000fd5b7f4e487b7100000000000000000000000000000000000000000000000000000000600052604160045260246000fd5b6000601f19601f8301169050919050565b60008160601b9050919050565b7f4552433732313a207472616e7366657220746f206e6f6e20455243373231526560008201527f63656976657220696d706c656d656e7465720000000000000000000000000000602082015250565b7f4552433732313a207472616e736665722066726f6d20696e636f72726563742060008201527f6f776e6572000000000000000000000000000000000000000000000000000000602082015250565b7f4552433732313a20746f6b656e20616c7265616479206d696e74656400000000600082015250565b7f2c00000000000000000000000000000000000000000000000000000000000000600082015250565b7f4552433732313a207472616e7366657220746f20746865207a65726f2061646460008201527f7265737300000000000000000000000000000000000000000000000000000000602082015250565b7f4552433732313a20617070726f766520746f2063616c6c657200000000000000600082015250565b7f4552433732313a206f70657261746f7220717565727920666f72206e6f6e657860008201527f697374656e7420746f6b656e0000000000000000000000000000000000000000602082015250565b7f4552433732313a20617070726f76652063616c6c6572206973206e6f74206f7760008201527f6e6572206e6f7220617070726f76656420666f7220616c6c0000000000000000602082015250565b7f4552433732313a2062616c616e636520717565727920666f7220746865207a6560008201527f726f206164647265737300000000000000000000000000000000000000000000602082015250565b7f4552433732313a206f776e657220717565727920666f72206e6f6e657869737460008201527f656e7420746f6b656e0000000000000000000000000000000000000000000000602082015250565b7f45524337323155524953746f726167653a2055524920736574206f66206e6f6e60008201527f6578697374656e7420746f6b656e000000000000000000000000000000000000602082015250565b7f227d000000000000000000000000000000000000000000000000000000000000600082015250565b7f7b226e616d65223a20226772616469656e7473206e616d6573222c202264657360008201527f6372697074696f6e223a20224120686967686c79206163636c61696d6564206360208201527f6f6c6c656374696f6e206f66206772616469656e74732073717561726573202e60408201527f222c2022696d616765223a2022646174613a696d6167652f7376672b786d6c3b60608201527f6261736536342c00000000000000000000000000000000000000000000000000608082015250565b7f4552433732313a206d696e7420746f20746865207a65726f2061646472657373600082015250565b7f45524337323155524953746f726167653a2055524920717565727920666f722060008201527f6e6f6e6578697374656e7420746f6b656e000000000000000000000000000000602082015250565b7f4552433732313a20617070726f76656420717565727920666f72206e6f6e657860008201527f697374656e7420746f6b656e0000000000000000000000000000000000000000602082015250565b7f4552433732314d657461646174613a2055524920717565727920666f72206e6f60008201527f6e6578697374656e7420746f6b656e0000000000000000000000000000000000602082015250565b7f4552433732313a20617070726f76616c20746f2063757272656e74206f776e6560008201527f7200000000000000000000000000000000000000000000000000000000000000602082015250565b7f646174613a6170706c69636174696f6e2f6a736f6e3b6261736536342c000000600082015250565b7f4552433732313a207472616e736665722063616c6c6572206973206e6f74206f60008201527f776e6572206e6f7220617070726f766564000000000000000000000000000000602082015250565b61361b81612dbd565b811461362657600080fd5b50565b61363281612dcf565b811461363d57600080fd5b50565b61364981612ddb565b811461365457600080fd5b50565b61366081612e27565b811461366b57600080fd5b5056fe416e204e465420772f20494420257320686173206265656e206d696e74656420746f2025734142434445464748494a4b4c4d4e4f505152535455565758595a6162636465666768696a6b6c6d6e6f707172737475767778797a303132333435363738392b2fa26469706673582212203ce31db35c5682d70fecff26185c405781a658e6eac002f83c77c8daab1fe68d64736f6c634300080400333c616e696d6174655472616e73666f726d206174747269627574654e616d653d226772616469656e745472616e73666f726d2220747970653d227472616e736c617465222066726f6d3d222d3120302220746f3d223120302220626567696e3d22307322206475723d22312e35732220726570656174436f756e743d22696e646566696e697465222f3e3c2f6c696e6561724772616469656e743e3c2f646566733e3c70617468207374796c653d2266696c6c3a75726c282361292220643d224d2d3130302d3130306833303076333030682d3330307a222f3e3c2f7376673e3c73766720786d6c6e733d22687474703a2f2f7777772e77332e6f72672f323030302f737667222076696577426f783d22302030203130302031303022203e3c646566733e3c6c696e6561724772616469656e742069643d2261222078313d223025222079313d22353025222078323d2231303025222079323d2235302522203e",
  "linkReferences": {},
  "deployedLinkReferences": {}
}