{
  "_format": "hh-sol-artifact-1",
  "contractName": "EpicNFT",
  "sourceName": "contracts/EpicNFT.sol",
  "abi": [
    {
      "inputs": [],
      "stateMutability": "nonpayable",
      "type": "constructor"
    },
    {
      "anonymous": false,
      "inputs": [
        {
          "indexed": true,
          "internalType": "address",
          "name": "owner",
          "type": "address"
        },
        {
          "indexed": true,
          "internalType": "address",
          "name": "approved",
          "type": "address"
        },
        {
          "indexed": true,
          "internalType": "uint256",
          "name": "tokenId",
          "type": "uint256"
        }
      ],
      "name": "Approval",
      "type": "event"
    },
    {
      "anonymous": false,
      "inputs": [
        {
          "indexed": true,
          "internalType": "address",
          "name": "owner",
          "type": "address"
        },
        {
          "indexed": true,
          "internalType": "address",
          "name": "operator",
          "type": "address"
        },
        {
          "indexed": false,
          "internalType": "bool",
          "name": "approved",
          "type": "bool"
        }
      ],
      "name": "ApprovalForAll",
      "type": "event"
    },
    {
      "anonymous": false,
      "inputs": [
        {
          "indexed": false,
          "internalType": "address",
          "name": "sender",
          "type": "address"
        },
        {
          "indexed": false,
          "internalType": "uint256",
          "name": "tokenId",
          "type": "uint256"
        }
      ],
      "name": "NewEpicNFTMinted",
      "type": "event"
    },
    {
      "anonymous": false,
      "inputs": [
        {
          "indexed": true,
          "internalType": "address",
          "name": "from",
          "type": "address"
        },
        {
          "indexed": true,
          "internalType": "address",
          "name": "to",
          "type": "address"
        },
        {
          "indexed": true,
          "internalType": "uint256",
          "name": "tokenId",
          "type": "uint256"
        }
      ],
      "name": "Transfer",
      "type": "event"
    },
    {
      "inputs": [
        {
          "internalType": "address",
          "name": "to",
          "type": "address"
        },
        {
          "internalType": "uint256",
          "name": "tokenId",
          "type": "uint256"
        }
      ],
      "name": "approve",
      "outputs": [],
      "stateMutability": "nonpayable",
      "type": "function"
    },
    {
      "inputs": [
        {
          "internalType": "address",
          "name": "owner",
          "type": "address"
        }
      ],
      "name": "balanceOf",
      "outputs": [
        {
          "internalType": "uint256",
          "name": "",
          "type": "uint256"
        }
      ],
      "stateMutability": "view",
      "type": "function"
    },
    {
      "inputs": [
        {
          "internalType": "uint256",
          "name": "tokenId",
          "type": "uint256"
        }
      ],
      "name": "getApproved",
      "outputs": [
        {
          "internalType": "address",
          "name": "",
          "type": "address"
        }
      ],
      "stateMutability": "view",
      "type": "function"
    },
    {
      "inputs": [
        {
          "internalType": "address",
          "name": "owner",
          "type": "address"
        },
        {
          "internalType": "address",
          "name": "operator",
          "type": "address"
        }
      ],
      "name": "isApprovedForAll",
      "outputs": [
        {
          "internalType": "bool",
          "name": "",
          "type": "bool"
        }
      ],
      "stateMutability": "view",
      "type": "function"
    },
    {
      "inputs": [
        {
          "internalType": "string",
          "name": "words",
          "type": "string"
        }
      ],
      "name": "makeNFT",
      "outputs": [],
      "stateMutability": "nonpayable",
      "type": "function"
    },
    {
      "inputs": [],
      "name": "name",
      "outputs": [
        {
          "internalType": "string",
          "name": "",
          "type": "string"
        }
      ],
      "stateMutability": "view",
      "type": "function"
    },
    {
      "inputs": [
        {
          "internalType": "uint256",
          "name": "tokenId",
          "type": "uint256"
        }
      ],
      "name": "ownerOf",
      "outputs": [
        {
          "internalType": "address",
          "name": "",
          "type": "address"
        }
      ],
      "stateMutability": "view",
      "type": "function"
    },
    {
      "inputs": [],
      "name": "randomRgb",
      "outputs": [
        {
          "internalType": "uint256",
          "name": "",
          "type": "uint256"
        }
      ],
      "stateMutability": "nonpayable",
      "type": "function"
    },
    {
      "inputs": [
        {
          "internalType": "address",
          "name": "from",
          "type": "address"
        },
        {
          "internalType": "address",
          "name": "to",
          "type": "address"
        },
        {
          "internalType": "uint256",
          "name": "tokenId",
          "type": "uint256"
        }
      ],
      "name": "safeTransferFrom",
      "outputs": [],
      "stateMutability": "nonpayable",
      "type": "function"
    },
    {
      "inputs": [
        {
          "internalType": "address",
          "name": "from",
          "type": "address"
        },
        {
          "internalType": "address",
          "name": "to",
          "type": "address"
        },
        {
          "internalType": "uint256",
          "name": "tokenId",
          "type": "uint256"
        },
        {
          "internalType": "bytes",
          "name": "_data",
          "type": "bytes"
        }
      ],
      "name": "safeTransferFrom",
      "outputs": [],
      "stateMutability": "nonpayable",
      "type": "function"
    },
    {
      "inputs": [
        {
          "internalType": "address",
          "name": "operator",
          "type": "address"
        },
        {
          "internalType": "bool",
          "name": "approved",
          "type": "bool"
        }
      ],
      "name": "setApprovalForAll",
      "outputs": [],
      "stateMutability": "nonpayable",
      "type": "function"
    },
    {
      "inputs": [
        {
          "internalType": "bytes4",
          "name": "interfaceId",
          "type": "bytes4"
        }
      ],
      "name": "supportsInterface",
      "outputs": [
        {
          "internalType": "bool",
          "name": "",
          "type": "bool"
        }
      ],
      "stateMutability": "view",
      "type": "function"
    },
    {
      "inputs": [],
      "name": "symbol",
      "outputs": [
        {
          "internalType": "string",
          "name": "",
          "type": "string"
        }
      ],
      "stateMutability": "view",
      "type": "function"
    },
    {
      "inputs": [
        {
          "internalType": "uint256",
          "name": "tokenId",
          "type": "uint256"
        }
      ],
      "name": "tokenURI",
      "outputs": [
        {
          "internalType": "string",
          "name": "",
          "type": "string"
        }
      ],
      "stateMutability": "view",
      "type": "function"
    },
    {
      "inputs": [
        {
          "internalType": "address",
          "name": "from",
          "type": "address"
        },
        {
          "internalType": "address",
          "name": "to",
          "type": "address"
        },
        {
          "internalType": "uint256",
          "name": "tokenId",
          "type": "uint256"
        }
      ],
      "name": "transferFrom",
      "outputs": [],
      "stateMutability": "nonpayable",
      "type": "function"
    }
  ],
  "bytecode": "0x60806040526040518060c001604052806081815260200162003e3160819139600890805190602001906200003592919062000239565b5060405180610100016040528060e0815260200162003d5160e09139600990805190602001906200006892919062000239565b506000600a553480156200007b57600080fd5b506040518060400160405280600881526020017f72656e7a6f4e46540000000000000000000000000000000000000000000000008152506040518060400160405280600681526020017f535155415245000000000000000000000000000000000000000000000000000081525081600090805190602001906200010092919062000239565b5080600190805190602001906200011992919062000239565b505050620001676040518060400160405280601b81526020017f54686973206973206d7920636f6e74726163742072756e6e696e6700000000008152506200016d60201b62000df11760201c565b62000416565b6200020d816040516024016200018491906200032a565b6040516020818303038152906040527f41304fac000000000000000000000000000000000000000000000000000000007bffffffffffffffffffffffffffffffffffffffffffffffffffffffff19166020820180517bffffffffffffffffffffffffffffffffffffffffffffffffffffffff83818316178352505050506200021060201b60201c565b50565b60008151905060006a636f6e736f6c652e6c6f679050602083016000808483855afa5050505050565b8280546200024790620003a0565b90600052602060002090601f0160209004810192826200026b5760008555620002b7565b82601f106200028657805160ff1916838001178555620002b7565b82800160010185558215620002b7579182015b82811115620002b657825182559160200191906001019062000299565b5b509050620002c69190620002ca565b5090565b5b80821115620002e5576000816000905550600101620002cb565b5090565b6000620002f6826200034e565b62000302818562000359565b9350620003148185602086016200036a565b6200031f8162000405565b840191505092915050565b60006020820190508181036000830152620003468184620002e9565b905092915050565b600081519050919050565b600082825260208201905092915050565b60005b838110156200038a5780820151818401526020810190506200036d565b838111156200039a576000848401525b50505050565b60006002820490506001821680620003b957607f821691505b60208210811415620003d057620003cf620003d6565b5b50919050565b7f4e487b7100000000000000000000000000000000000000000000000000000000600052602260045260246000fd5b6000601f19601f8301169050919050565b61392b80620004266000396000f3fe608060405234801561001057600080fd5b50600436106100f55760003560e01c806370a0823111610097578063c87b56dd11610066578063c87b56dd14610282578063c910262f146102b2578063e985e9c5146102ce578063f45cdc98146102fe576100f5565b806370a08231146101fc57806395d89b411461022c578063a22cb4651461024a578063b88d4fde14610266576100f5565b8063095ea7b3116100d3578063095ea7b31461017857806323b872dd1461019457806342842e0e146101b05780636352211e146101cc576100f5565b806301ffc9a7146100fa57806306fdde031461012a578063081812fc14610148575b600080fd5b610114600480360381019061010f9190612397565b61031c565b6040516101219190612b29565b60405180910390f35b6101326103fe565b60405161013f9190612b44565b60405180910390f35b610162600480360381019061015d919061242a565b610490565b60405161016f9190612a99565b60405180910390f35b610192600480360381019061018d919061235b565b610515565b005b6101ae60048036038101906101a99190612255565b61062d565b005b6101ca60048036038101906101c59190612255565b61068d565b005b6101e660048036038101906101e1919061242a565b6106ad565b6040516101f39190612a99565b60405180910390f35b610216600480360381019061021191906121f0565b61075f565b6040516102239190612da4565b60405180910390f35b610234610817565b6040516102419190612b44565b60405180910390f35b610264600480360381019061025f919061231f565b6108a9565b005b610280600480360381019061027b91906122a4565b6108bf565b005b61029c6004803603810190610297919061242a565b610921565b6040516102a99190612b44565b60405180910390f35b6102cc60048036038101906102c791906123e9565b610a73565b005b6102e860048036038101906102e39190612219565b610cfd565b6040516102f59190612b29565b60405180910390f35b610306610d91565b6040516103139190612da4565b60405180910390f35b60007f80ac58cd000000000000000000000000000000000000000000000000000000007bffffffffffffffffffffffffffffffffffffffffffffffffffffffff1916827bffffffffffffffffffffffffffffffffffffffffffffffffffffffff191614806103e757507f5b5e139f000000000000000000000000000000000000000000000000000000007bffffffffffffffffffffffffffffffffffffffffffffffffffffffff1916827bffffffffffffffffffffffffffffffffffffffffffffffffffffffff1916145b806103f757506103f682610e8a565b5b9050919050565b60606000805461040d90613069565b80601f016020809104026020016040519081016040528092919081815260200182805461043990613069565b80156104865780601f1061045b57610100808354040283529160200191610486565b820191906000526020600020905b81548152906001019060200180831161046957829003601f168201915b5050505050905090565b600061049b82610ef4565b6104da576040517f08c379a00000000000000000000000000000000000000000000000000000000081526004016104d190612d24565b60405180910390fd5b6004600083815260200190815260200160002060009054906101000a900473ffffffffffffffffffffffffffffffffffffffff169050919050565b6000610520826106ad565b90508073ffffffffffffffffffffffffffffffffffffffff168373ffffffffffffffffffffffffffffffffffffffff161415610591576040517f08c379a000000000000000000000000000000000000000000000000000000000815260040161058890612d64565b60405180910390fd5b8073ffffffffffffffffffffffffffffffffffffffff166105b0610f60565b73ffffffffffffffffffffffffffffffffffffffff1614806105df57506105de816105d9610f60565b610cfd565b5b61061e576040517f08c379a000000000000000000000000000000000000000000000000000000000815260040161061590612c64565b60405180910390fd5b6106288383610f68565b505050565b61063e610638610f60565b82611021565b61067d576040517f08c379a000000000000000000000000000000000000000000000000000000000815260040161067490612d84565b60405180910390fd5b6106888383836110ff565b505050565b6106a8838383604051806020016040528060008152506108bf565b505050565b6000806002600084815260200190815260200160002060009054906101000a900473ffffffffffffffffffffffffffffffffffffffff169050600073ffffffffffffffffffffffffffffffffffffffff168173ffffffffffffffffffffffffffffffffffffffff161415610756576040517f08c379a000000000000000000000000000000000000000000000000000000000815260040161074d90612ca4565b60405180910390fd5b80915050919050565b60008073ffffffffffffffffffffffffffffffffffffffff168273ffffffffffffffffffffffffffffffffffffffff1614156107d0576040517f08c379a00000000000000000000000000000000000000000000000000000000081526004016107c790612c84565b60405180910390fd5b600360008373ffffffffffffffffffffffffffffffffffffffff1673ffffffffffffffffffffffffffffffffffffffff168152602001908152602001600020549050919050565b60606001805461082690613069565b80601f016020809104026020016040519081016040528092919081815260200182805461085290613069565b801561089f5780601f106108745761010080835404028352916020019161089f565b820191906000526020600020905b81548152906001019060200180831161088257829003601f168201915b5050505050905090565b6108bb6108b4610f60565b8383611366565b5050565b6108d06108ca610f60565b83611021565b61090f576040517f08c379a000000000000000000000000000000000000000000000000000000000815260040161090690612d84565b60405180910390fd5b61091b848484846114d3565b50505050565b606061092c82610ef4565b61096b576040517f08c379a000000000000000000000000000000000000000000000000000000000815260040161096290612d04565b60405180910390fd5b600060066000848152602001908152602001600020805461098b90613069565b80601f01602080910402602001604051908101604052809291908181526020018280546109b790613069565b8015610a045780601f106109d957610100808354040283529160200191610a04565b820191906000526020600020905b8154815290600101906020018083116109e757829003601f168201915b505050505090506000610a1561152f565b9050600081511415610a2b578192505050610a6e565b600082511115610a60578082604051602001610a489291906128d2565b60405160208183030381529060405292505050610a6e565b610a6984611546565b925050505b919050565b6000610a7f60076115ed565b90506000610ac16040518060400160405280600181526020017f30000000000000000000000000000000000000000000000000000000000000008152506115fb565b90506000610b036040518060400160405280600281526020017f35300000000000000000000000000000000000000000000000000000000000008152506115fb565b90506000610b456040518060400160405280600381526020017f31303000000000000000000000000000000000000000000000000000000000008152506115fb565b9050600060088484846009604051602001610b64959493929190612988565b6040516020818303038152906040529050600086604051602001610b8891906129d3565b60405160208183030381529060405290506000610bcd82610ba88561172a565b604051602001610bb99291906129f5565b60405160208183030381529060405261172a565b9050600081604051602001610be29190612a3a565b6040516020818303038152906040529050610c316040518060400160405280601581526020017f0a2d2d2d2d2d2d2d2d2d2d2d2d2d2d2d2d2d2d2d2d0000000000000000000000815250610df1565b610c3a81610df1565b610c786040518060400160405280601581526020017f2d2d2d2d2d2d2d2d2d2d2d2d2d2d2d2d2d2d2d2d0a0000000000000000000000815250610df1565b610c8233896118c9565b610c8c88826118e7565b610c96600761195b565b610cb9604051806060016040528060258152602001613891602591398933611971565b7febb98688741ffa4c7589bf325de30cf7becb63de567842e1ccdb6cb949fdc82c3389604051610cea929190612b00565b60405180910390a1505050505050505050565b6000600560008473ffffffffffffffffffffffffffffffffffffffff1673ffffffffffffffffffffffffffffffffffffffff16815260200190815260200160002060008373ffffffffffffffffffffffffffffffffffffffff1673ffffffffffffffffffffffffffffffffffffffff16815260200190815260200160002060009054906101000a900460ff16905092915050565b60008060ff4233600a54604051602001610dad93929190612a5c565b6040516020818303038152906040528051906020012060001c610dd09190613143565b9050600a6000815480929190610de5906130cc565b91905055508091505090565b610e8781604051602401610e059190612b44565b6040516020818303038152906040527f41304fac000000000000000000000000000000000000000000000000000000007bffffffffffffffffffffffffffffffffffffffffffffffffffffffff19166020820180517bffffffffffffffffffffffffffffffffffffffffffffffffffffffff8381831617835250505050611a10565b50565b60007f01ffc9a7000000000000000000000000000000000000000000000000000000007bffffffffffffffffffffffffffffffffffffffffffffffffffffffff1916827bffffffffffffffffffffffffffffffffffffffffffffffffffffffff1916149050919050565b60008073ffffffffffffffffffffffffffffffffffffffff166002600084815260200190815260200160002060009054906101000a900473ffffffffffffffffffffffffffffffffffffffff1673ffffffffffffffffffffffffffffffffffffffff1614159050919050565b600033905090565b816004600083815260200190815260200160002060006101000a81548173ffffffffffffffffffffffffffffffffffffffff021916908373ffffffffffffffffffffffffffffffffffffffff160217905550808273ffffffffffffffffffffffffffffffffffffffff16610fdb836106ad565b73ffffffffffffffffffffffffffffffffffffffff167f8c5be1e5ebec7d5bd14f71427d1e84f3dd0314c0f7b2291e5b200ac8c7c3b92560405160405180910390a45050565b600061102c82610ef4565b61106b576040517f08c379a000000000000000000000000000000000000000000000000000000000815260040161106290612c44565b60405180910390fd5b6000611076836106ad565b90508073ffffffffffffffffffffffffffffffffffffffff168473ffffffffffffffffffffffffffffffffffffffff1614806110e557508373ffffffffffffffffffffffffffffffffffffffff166110cd84610490565b73ffffffffffffffffffffffffffffffffffffffff16145b806110f657506110f58185610cfd565b5b91505092915050565b8273ffffffffffffffffffffffffffffffffffffffff1661111f826106ad565b73ffffffffffffffffffffffffffffffffffffffff1614611175576040517f08c379a000000000000000000000000000000000000000000000000000000000815260040161116c90612bc4565b60405180910390fd5b600073ffffffffffffffffffffffffffffffffffffffff168273ffffffffffffffffffffffffffffffffffffffff1614156111e5576040517f08c379a00000000000000000000000000000000000000000000000000000000081526004016111dc90612c04565b60405180910390fd5b6111f0838383611a39565b6111fb600082610f68565b6001600360008573ffffffffffffffffffffffffffffffffffffffff1673ffffffffffffffffffffffffffffffffffffffff168152602001908152602001600020600082825461124b9190612f7f565b925050819055506001600360008473ffffffffffffffffffffffffffffffffffffffff1673ffffffffffffffffffffffffffffffffffffffff16815260200190815260200160002060008282546112a29190612e9e565b92505081905550816002600083815260200190815260200160002060006101000a81548173ffffffffffffffffffffffffffffffffffffffff021916908373ffffffffffffffffffffffffffffffffffffffff160217905550808273ffffffffffffffffffffffffffffffffffffffff168473ffffffffffffffffffffffffffffffffffffffff167fddf252ad1be2c89b69c2b068fc378daa952ba7f163c4a11628f55a4df523b3ef60405160405180910390a4611361838383611a3e565b505050565b8173ffffffffffffffffffffffffffffffffffffffff168373ffffffffffffffffffffffffffffffffffffffff1614156113d5576040517f08c379a00000000000000000000000000000000000000000000000000000000081526004016113cc90612c24565b60405180910390fd5b80600560008573ffffffffffffffffffffffffffffffffffffffff1673ffffffffffffffffffffffffffffffffffffffff16815260200190815260200160002060008473ffffffffffffffffffffffffffffffffffffffff1673ffffffffffffffffffffffffffffffffffffffff16815260200190815260200160002060006101000a81548160ff0219169083151502179055508173ffffffffffffffffffffffffffffffffffffffff168373ffffffffffffffffffffffffffffffffffffffff167f17307eab39ab6107e8899845ad3d59bd9653f200f220920489ca2b5937696c31836040516114c69190612b29565b60405180910390a3505050565b6114de8484846110ff565b6114ea84848484611a43565b611529576040517f08c379a000000000000000000000000000000000000000000000000000000000815260040161152090612ba4565b60405180910390fd5b50505050565b606060405180602001604052806000815250905090565b606061155182610ef4565b611590576040517f08c379a000000000000000000000000000000000000000000000000000000000815260040161158790612d44565b60405180910390fd5b600061159a61152f565b905060008151116115ba57604051806020016040528060008152506115e5565b806115c484611bda565b6040516020016115d59291906128d2565b6040516020818303038152906040525b915050919050565b600081600001549050919050565b6060600061160f61160a610d91565b611bda565b9050600061162361161e610d91565b611bda565b90506000611637611632610d91565b611bda565b905060006040518060400160405280600e81526020017f3c73746f70206f66667365743d22000000000000000000000000000000000000815250905060006040518060400160405280601981526020017f2522207374796c653d2273746f702d636f6c6f723a7267622800000000000000815250905060006040518060400160405280601781526020017f293b73746f702d6f7061636974793a312e303022202f3e000000000000000000815250905060008389846040516020016116fe939291906128f6565b604051602081830303815290604052905061171c8188888886611d87565b975050505050505050919050565b606060008251141561174d576040518060200160405280600081525090506118c4565b60006040518060600160405280604081526020016138b6604091399050600060036002855161177c9190612e9e565b6117869190612ef4565b60046117929190612f25565b905060006020826117a39190612e9e565b67ffffffffffffffff8111156117e2577f4e487b7100000000000000000000000000000000000000000000000000000000600052604160045260246000fd5b6040519080825280601f01601f1916602001820160405280156118145781602001600182028036833780820191505090505b509050818152600183018586518101602084015b81831015611883576003830192508251603f8160121c168501518253600182019150603f81600c1c168501518253600182019150603f8160061c168501518253600182019150603f8116850151825360018201915050611828565b60038951066001811461189d57600281146118ad576118b8565b613d3d60f01b60028303526118b8565b603d60f81b60018303525b50505050508093505050505b919050565b6118e3828260405180602001604052806000815250611dbc565b5050565b6118f082610ef4565b61192f576040517f08c379a000000000000000000000000000000000000000000000000000000000815260040161192690612cc4565b60405180910390fd5b80600660008481526020019081526020016000209080519060200190611956929190612014565b505050565b6001816000016000828254019250508190555050565b611a0b83838360405160240161198993929190612b66565b6040516020818303038152906040527fe3849f79000000000000000000000000000000000000000000000000000000007bffffffffffffffffffffffffffffffffffffffffffffffffffffffff19166020820180517bffffffffffffffffffffffffffffffffffffffffffffffffffffffff8381831617835250505050611a10565b505050565b60008151905060006a636f6e736f6c652e6c6f679050602083016000808483855afa5050505050565b505050565b505050565b6000611a648473ffffffffffffffffffffffffffffffffffffffff16611e17565b15611bcd578373ffffffffffffffffffffffffffffffffffffffff1663150b7a02611a8d610f60565b8786866040518563ffffffff1660e01b8152600401611aaf9493929190612ab4565b602060405180830381600087803b158015611ac957600080fd5b505af1925050508015611afa57506040513d601f19601f82011682018060405250810190611af791906123c0565b60015b611b7d573d8060008114611b2a576040519150601f19603f3d011682016040523d82523d6000602084013e611b2f565b606091505b50600081511415611b75576040517f08c379a0000000000000000000000000000000000000000000000000000000008152600401611b6c90612ba4565b60405180910390fd5b805181602001fd5b63150b7a0260e01b7bffffffffffffffffffffffffffffffffffffffffffffffffffffffff1916817bffffffffffffffffffffffffffffffffffffffffffffffffffffffff191614915050611bd2565b600190505b949350505050565b60606000821415611c22576040518060400160405280600181526020017f30000000000000000000000000000000000000000000000000000000000000008152509050611d82565b600082905060005b60008214611c54578080611c3d906130cc565b915050600a82611c4d9190612ef4565b9150611c2a565b60008167ffffffffffffffff811115611c96577f4e487b7100000000000000000000000000000000000000000000000000000000600052604160045260246000fd5b6040519080825280601f01601f191660200182016040528015611cc85781602001600182028036833780820191505090505b5090505b60008514611d7b57600182611ce19190612f7f565b9150600a85611cf09190613143565b6030611cfc9190612e9e565b60f81b818381518110611d38577f4e487b7100000000000000000000000000000000000000000000000000000000600052603260045260246000fd5b60200101907effffffffffffffffffffffffffffffffffffffffffffffffffffffffffffff1916908160001a905350600a85611d749190612ef4565b9450611ccc565b8093505050505b919050565b60608585858585604051602001611da2959493929190612927565b604051602081830303815290604052905095945050505050565b611dc68383611e3a565b611dd36000848484611a43565b611e12576040517f08c379a0000000000000000000000000000000000000000000000000000000008152600401611e0990612ba4565b60405180910390fd5b505050565b6000808273ffffffffffffffffffffffffffffffffffffffff163b119050919050565b600073ffffffffffffffffffffffffffffffffffffffff168273ffffffffffffffffffffffffffffffffffffffff161415611eaa576040517f08c379a0000000000000000000000000000000000000000000000000000000008152600401611ea190612ce4565b60405180910390fd5b611eb381610ef4565b15611ef3576040517f08c379a0000000000000000000000000000000000000000000000000000000008152600401611eea90612be4565b60405180910390fd5b611eff60008383611a39565b6001600360008473ffffffffffffffffffffffffffffffffffffffff1673ffffffffffffffffffffffffffffffffffffffff1681526020019081526020016000206000828254611f4f9190612e9e565b92505081905550816002600083815260200190815260200160002060006101000a81548173ffffffffffffffffffffffffffffffffffffffff021916908373ffffffffffffffffffffffffffffffffffffffff160217905550808273ffffffffffffffffffffffffffffffffffffffff16600073ffffffffffffffffffffffffffffffffffffffff167fddf252ad1be2c89b69c2b068fc378daa952ba7f163c4a11628f55a4df523b3ef60405160405180910390a461201060008383611a3e565b5050565b82805461202090613069565b90600052602060002090601f0160209004810192826120425760008555612089565b82601f1061205b57805160ff1916838001178555612089565b82800160010185558215612089579182015b8281111561208857825182559160200191906001019061206d565b5b509050612096919061209a565b5090565b5b808211156120b357600081600090555060010161209b565b5090565b60006120ca6120c584612de4565b612dbf565b9050828152602081018484840111156120e257600080fd5b6120ed848285613027565b509392505050565b600061210861210384612e15565b612dbf565b90508281526020810184848401111561212057600080fd5b61212b848285613027565b509392505050565b60008135905061214281613834565b92915050565b6000813590506121578161384b565b92915050565b60008135905061216c81613862565b92915050565b60008151905061218181613862565b92915050565b600082601f83011261219857600080fd5b81356121a88482602086016120b7565b91505092915050565b600082601f8301126121c257600080fd5b81356121d28482602086016120f5565b91505092915050565b6000813590506121ea81613879565b92915050565b60006020828403121561220257600080fd5b600061221084828501612133565b91505092915050565b6000806040838503121561222c57600080fd5b600061223a85828601612133565b925050602061224b85828601612133565b9150509250929050565b60008060006060848603121561226a57600080fd5b600061227886828701612133565b935050602061228986828701612133565b925050604061229a868287016121db565b9150509250925092565b600080600080608085870312156122ba57600080fd5b60006122c887828801612133565b94505060206122d987828801612133565b93505060406122ea878288016121db565b925050606085013567ffffffffffffffff81111561230757600080fd5b61231387828801612187565b91505092959194509250565b6000806040838503121561233257600080fd5b600061234085828601612133565b925050602061235185828601612148565b9150509250929050565b6000806040838503121561236e57600080fd5b600061237c85828601612133565b925050602061238d858286016121db565b9150509250929050565b6000602082840312156123a957600080fd5b60006123b78482850161215d565b91505092915050565b6000602082840312156123d257600080fd5b60006123e084828501612172565b91505092915050565b6000602082840312156123fb57600080fd5b600082013567ffffffffffffffff81111561241557600080fd5b612421848285016121b1565b91505092915050565b60006020828403121561243c57600080fd5b600061244a848285016121db565b91505092915050565b61245c81612fb3565b82525050565b61247361246e82612fb3565b613115565b82525050565b61248281612fc5565b82525050565b600061249382612e5b565b61249d8185612e71565b93506124ad818560208601613036565b6124b681613230565b840191505092915050565b60006124cc82612e66565b6124d68185612e82565b93506124e6818560208601613036565b6124ef81613230565b840191505092915050565b600061250582612e66565b61250f8185612e93565b935061251f818560208601613036565b80840191505092915050565b6000815461253881613069565b6125428186612e93565b9450600182166000811461255d576001811461256e576125a1565b60ff198316865281860193506125a1565b61257785612e46565b60005b838110156125995781548189015260018201915060208101905061257a565b838801955050505b50505092915050565b60006125b7603283612e82565b91506125c28261324e565b604082019050919050565b60006125da600a83612e93565b91506125e58261329d565b600a82019050919050565b60006125fd602583612e82565b9150612608826132c6565b604082019050919050565b6000612620601c83612e82565b915061262b82613315565b602082019050919050565b6000612643600183612e93565b915061264e8261333e565b600182019050919050565b6000612666602483612e82565b915061267182613367565b604082019050919050565b6000612689601983612e82565b9150612694826133b6565b602082019050919050565b60006126ac602c83612e82565b91506126b7826133df565b604082019050919050565b60006126cf603883612e82565b91506126da8261342e565b604082019050919050565b60006126f2602a83612e82565b91506126fd8261347d565b604082019050919050565b6000612715602983612e82565b9150612720826134cc565b604082019050919050565b6000612738602e83612e82565b91506127438261351b565b604082019050919050565b600061275b600283612e93565b91506127668261356a565b600282019050919050565b600061277e602083612e82565b915061278982613593565b602082019050919050565b60006127a1603183612e82565b91506127ac826135bc565b604082019050919050565b60006127c4602c83612e82565b91506127cf8261360b565b604082019050919050565b60006127e7602f83612e82565b91506127f28261365a565b604082019050919050565b600061280a600a83612e93565b9150612815826136a9565b600a82019050919050565b600061282d602183612e82565b9150612838826136d2565b604082019050919050565b6000612850601d83612e93565b915061285b82613721565b601d82019050919050565b6000612873603183612e82565b915061287e8261374a565b604082019050919050565b6000612896606583612e93565b91506128a182613799565b606582019050919050565b6128b58161301d565b82525050565b6128cc6128c78261301d565b613139565b82525050565b60006128de82856124fa565b91506128ea82846124fa565b91508190509392505050565b600061290282866124fa565b915061290e82856124fa565b915061291a82846124fa565b9150819050949350505050565b600061293382886124fa565b915061293f82876124fa565b915061294a82612636565b915061295682866124fa565b915061296182612636565b915061296d82856124fa565b915061297982846124fa565b91508190509695505050505050565b6000612994828861252b565b91506129a082876124fa565b91506129ac82866124fa565b91506129b882856124fa565b91506129c4828461252b565b91508190509695505050505050565b60006129de826125cd565b91506129ea82846124fa565b915081905092915050565b6000612a00826127fd565b9150612a0c82856124fa565b9150612a1782612889565b9150612a2382846124fa565b9150612a2e8261274e565b91508190509392505050565b6000612a4582612843565b9150612a5182846124fa565b915081905092915050565b6000612a6882866128bb565b602082019150612a788285612462565b601482019150612a8882846128bb565b602082019150819050949350505050565b6000602082019050612aae6000830184612453565b92915050565b6000608082019050612ac96000830187612453565b612ad66020830186612453565b612ae360408301856128ac565b8181036060830152612af58184612488565b905095945050505050565b6000604082019050612b156000830185612453565b612b2260208301846128ac565b9392505050565b6000602082019050612b3e6000830184612479565b92915050565b60006020820190508181036000830152612b5e81846124c1565b905092915050565b60006060820190508181036000830152612b8081866124c1565b9050612b8f60208301856128ac565b612b9c6040830184612453565b949350505050565b60006020820190508181036000830152612bbd816125aa565b9050919050565b60006020820190508181036000830152612bdd816125f0565b9050919050565b60006020820190508181036000830152612bfd81612613565b9050919050565b60006020820190508181036000830152612c1d81612659565b9050919050565b60006020820190508181036000830152612c3d8161267c565b9050919050565b60006020820190508181036000830152612c5d8161269f565b9050919050565b60006020820190508181036000830152612c7d816126c2565b9050919050565b60006020820190508181036000830152612c9d816126e5565b9050919050565b60006020820190508181036000830152612cbd81612708565b9050919050565b60006020820190508181036000830152612cdd8161272b565b9050919050565b60006020820190508181036000830152612cfd81612771565b9050919050565b60006020820190508181036000830152612d1d81612794565b9050919050565b60006020820190508181036000830152612d3d816127b7565b9050919050565b60006020820190508181036000830152612d5d816127da565b9050919050565b60006020820190508181036000830152612d7d81612820565b9050919050565b60006020820190508181036000830152612d9d81612866565b9050919050565b6000602082019050612db960008301846128ac565b92915050565b6000612dc9612dda565b9050612dd5828261309b565b919050565b6000604051905090565b600067ffffffffffffffff821115612dff57612dfe613201565b5b612e0882613230565b9050602081019050919050565b600067ffffffffffffffff821115612e3057612e2f613201565b5b612e3982613230565b9050602081019050919050565b60008190508160005260206000209050919050565b600081519050919050565b600081519050919050565b600082825260208201905092915050565b600082825260208201905092915050565b600081905092915050565b6000612ea98261301d565b9150612eb48361301d565b9250827fffffffffffffffffffffffffffffffffffffffffffffffffffffffffffffffff03821115612ee957612ee8613174565b5b828201905092915050565b6000612eff8261301d565b9150612f0a8361301d565b925082612f1a57612f196131a3565b5b828204905092915050565b6000612f308261301d565b9150612f3b8361301d565b9250817fffffffffffffffffffffffffffffffffffffffffffffffffffffffffffffffff0483118215151615612f7457612f73613174565b5b828202905092915050565b6000612f8a8261301d565b9150612f958361301d565b925082821015612fa857612fa7613174565b5b828203905092915050565b6000612fbe82612ffd565b9050919050565b60008115159050919050565b60007fffffffff0000000000000000000000000000000000000000000000000000000082169050919050565b600073ffffffffffffffffffffffffffffffffffffffff82169050919050565b6000819050919050565b82818337600083830152505050565b60005b83811015613054578082015181840152602081019050613039565b83811115613063576000848401525b50505050565b6000600282049050600182168061308157607f821691505b60208210811415613095576130946131d2565b5b50919050565b6130a482613230565b810181811067ffffffffffffffff821117156130c3576130c2613201565b5b80604052505050565b60006130d78261301d565b91507fffffffffffffffffffffffffffffffffffffffffffffffffffffffffffffffff82141561310a57613109613174565b5b600182019050919050565b600061312082613127565b9050919050565b600061313282613241565b9050919050565b6000819050919050565b600061314e8261301d565b91506131598361301d565b925082613169576131686131a3565b5b828206905092915050565b7f4e487b7100000000000000000000000000000000000000000000000000000000600052601160045260246000fd5b7f4e487b7100000000000000000000000000000000000000000000000000000000600052601260045260246000fd5b7f4e487b7100000000000000000000000000000000000000000000000000000000600052602260045260246000fd5b7f4e487b7100000000000000000000000000000000000000000000000000000000600052604160045260246000fd5b6000601f19601f8301169050919050565b60008160601b9050919050565b7f4552433732313a207472616e7366657220746f206e6f6e20455243373231526560008201527f63656976657220696d706c656d656e7465720000000000000000000000000000602082015250565b7f4772616469656e743a2000000000000000000000000000000000000000000000600082015250565b7f4552433732313a207472616e736665722066726f6d20696e636f72726563742060008201527f6f776e6572000000000000000000000000000000000000000000000000000000602082015250565b7f4552433732313a20746f6b656e20616c7265616479206d696e74656400000000600082015250565b7f2c00000000000000000000000000000000000000000000000000000000000000600082015250565b7f4552433732313a207472616e7366657220746f20746865207a65726f2061646460008201527f7265737300000000000000000000000000000000000000000000000000000000602082015250565b7f4552433732313a20617070726f766520746f2063616c6c657200000000000000600082015250565b7f4552433732313a206f70657261746f7220717565727920666f72206e6f6e657860008201527f697374656e7420746f6b656e0000000000000000000000000000000000000000602082015250565b7f4552433732313a20617070726f76652063616c6c6572206973206e6f74206f7760008201527f6e6572206e6f7220617070726f76656420666f7220616c6c0000000000000000602082015250565b7f4552433732313a2062616c616e636520717565727920666f7220746865207a6560008201527f726f206164647265737300000000000000000000000000000000000000000000602082015250565b7f4552433732313a206f776e657220717565727920666f72206e6f6e657869737460008201527f656e7420746f6b656e0000000000000000000000000000000000000000000000602082015250565b7f45524337323155524953746f726167653a2055524920736574206f66206e6f6e60008201527f6578697374656e7420746f6b656e000000000000000000000000000000000000602082015250565b7f227d000000000000000000000000000000000000000000000000000000000000600082015250565b7f4552433732313a206d696e7420746f20746865207a65726f2061646472657373600082015250565b7f45524337323155524953746f726167653a2055524920717565727920666f722060008201527f6e6f6e6578697374656e7420746f6b656e000000000000000000000000000000602082015250565b7f4552433732313a20617070726f76656420717565727920666f72206e6f6e657860008201527f697374656e7420746f6b656e0000000000000000000000000000000000000000602082015250565b7f4552433732314d657461646174613a2055524920717565727920666f72206e6f60008201527f6e6578697374656e7420746f6b656e0000000000000000000000000000000000602082015250565b7f7b226e616d65223a202200000000000000000000000000000000000000000000600082015250565b7f4552433732313a20617070726f76616c20746f2063757272656e74206f776e6560008201527f7200000000000000000000000000000000000000000000000000000000000000602082015250565b7f646174613a6170706c69636174696f6e2f6a736f6e3b6261736536342c000000600082015250565b7f4552433732313a207472616e736665722063616c6c6572206973206e6f74206f60008201527f776e6572206e6f7220617070726f766564000000000000000000000000000000602082015250565b7f222c20226465736372697074696f6e223a20224120686967686c79206163636c60008201527f61696d656420636f6c6c656374696f6e206f66206772616469656e74732e222c60208201527f2022696d616765223a2022646174613a696d6167652f7376672b786d6c3b626160408201527f736536342c000000000000000000000000000000000000000000000000000000606082015250565b61383d81612fb3565b811461384857600080fd5b50565b61385481612fc5565b811461385f57600080fd5b50565b61386b81612fd1565b811461387657600080fd5b50565b6138828161301d565b811461388d57600080fd5b5056fe416e204e465420772f20494420257320686173206265656e206d696e74656420746f2025734142434445464748494a4b4c4d4e4f505152535455565758595a6162636465666768696a6b6c6d6e6f707172737475767778797a303132333435363738392b2fa264697066735822122080a0fef787f4b863b2d38b999858bd66b5fbf0555df42c8bd97e0bf0993c1cbd64736f6c634300080400333c616e696d6174655472616e73666f726d206174747269627574654e616d653d226772616469656e745472616e73666f726d2220747970653d227472616e736c617465222066726f6d3d222d3120302220746f3d223120302220626567696e3d22307322206475723d22312e35732220726570656174436f756e743d22696e646566696e697465222f3e3c2f6c696e6561724772616469656e743e3c2f646566733e3c70617468207374796c653d2266696c6c3a75726c282361292220643d224d2d3130302d3130306833303076333030682d3330307a222f3e3c2f7376673e3c73766720786d6c6e733d22687474703a2f2f7777772e77332e6f72672f323030302f737667222076696577426f783d22302030203130302031303022203e3c646566733e3c6c696e6561724772616469656e742069643d2261222078313d223025222079313d22353025222078323d2231303025222079323d2235302522203e",
  "linkReferences": {},
  "deployedLinkReferences": {}
}